{
  "_format": "hh-sol-artifact-1",
  "contractName": "KlynaaToken",
  "sourceName": "contracts/KlynaaToken.sol",
  "abi": [
    {
      "inputs": [],
      "name": "decimals",
      "outputs": [
        {
          "internalType": "uint8",
          "name": "",
          "type": "uint8"
        }
      ],
      "stateMutability": "view",
      "type": "function"
    },
    {
      "inputs": [],
      "name": "name",
      "outputs": [
        {
          "internalType": "string",
          "name": "",
          "type": "string"
        }
      ],
      "stateMutability": "view",
      "type": "function"
    },
    {
      "inputs": [],
      "name": "symbol",
      "outputs": [
        {
          "internalType": "string",
          "name": "",
          "type": "string"
        }
      ],
      "stateMutability": "view",
      "type": "function"
    },
    {
      "inputs": [],
      "name": "totalSupply",
      "outputs": [
        {
          "internalType": "uint256",
          "name": "",
          "type": "uint256"
        }
      ],
      "stateMutability": "view",
      "type": "function"
    }
  ],
  "bytecode": "0x60806040526040518060400160405280600b81526020017f4b6c796e6161546f6b656e000000000000000000000000000000000000000000815250600090816100489190610311565b506040518060400160405280600381526020017f4b4c5900000000000000000000000000000000000000000000000000000000008152506001908161008d9190610311565b506012600260006101000a81548160ff021916908360ff16021790555060006003553480156100bb57600080fd5b506103e3565b600081519050919050565b7f4e487b7100000000000000000000000000000000000000000000000000000000600052604160045260246000fd5b7f4e487b7100000000000000000000000000000000000000000000000000000000600052602260045260246000fd5b6000600282049050600182168061014257607f821691505b602082108103610155576101546100fb565b5b50919050565b60008190508160005260206000209050919050565b60006020601f8301049050919050565b600082821b905092915050565b6000600883026101bd7fffffffffffffffffffffffffffffffffffffffffffffffffffffffffffffffff82610180565b6101c78683610180565b95508019841693508086168417925050509392505050565b6000819050919050565b6000819050919050565b600061020e610209610204846101df565b6101e9565b6101df565b9050919050565b6000819050919050565b610228836101f3565b61023c61023482610215565b84845461018d565b825550505050565b600090565b610251610244565b61025c81848461021f565b505050565b5b8181101561028057610275600082610249565b600181019050610262565b5050565b601f8211156102c5576102968161015b565b61029f84610170565b810160208510156102ae578190505b6102c26102ba85610170565b830182610261565b50505b505050565b600082821c905092915050565b60006102e8600019846008026102ca565b1980831691505092915050565b600061030183836102d7565b9150826002028217905092915050565b61031a826100c1565b67ffffffffffffffff811115610333576103326100cc565b5b61033d825461012a565b610348828285610284565b600060209050601f83116001811461037b5760008415610369578287015190505b61037385826102f5565b8655506103db565b601f1984166103898661015b565b60005b828110156103b15784890151825560018201915060208501945060208101905061038c565b868310156103ce57848901516103ca601f8916826102d7565b8355505b6001600288020188555050505b505050505050565b6103b1806103f26000396000f3fe608060405234801561001057600080fd5b506004361061004c5760003560e01c806306fdde031461005157806318160ddd1461006f578063313ce5671461008d57806395d89b41146100ab575b600080fd5b6100596100c9565b604051610066919061028e565b60405180910390f35b610077610157565b60405161008491906102c9565b60405180910390f35b61009561015d565b6040516100a29190610300565b60405180910390f35b6100b3610170565b6040516100c0919061028e565b60405180910390f35b600080546100d69061034a565b80601f01602080910402602001604051908101604052809291908181526020018280546101029061034a565b801561014f5780601f106101245761010080835404028352916020019161014f565b820191906000526020600020905b81548152906001019060200180831161013257829003601f168201915b505050505081565b60035481565b600260009054906101000a900460ff1681565b6001805461017d9061034a565b80601f01602080910402602001604051908101604052809291908181526020018280546101a99061034a565b80156101f65780601f106101cb576101008083540402835291602001916101f6565b820191906000526020600020905b8154815290600101906020018083116101d957829003601f168201915b505050505081565b600081519050919050565b600082825260208201905092915050565b60005b8381101561023857808201518184015260208101905061021d565b60008484015250505050565b6000601f19601f8301169050919050565b6000610260826101fe565b61026a8185610209565b935061027a81856020860161021a565b61028381610244565b840191505092915050565b600060208201905081810360008301526102a88184610255565b905092915050565b6000819050919050565b6102c3816102b0565b82525050565b60006020820190506102de60008301846102ba565b92915050565b600060ff82169050919050565b6102fa816102e4565b82525050565b600060208201905061031560008301846102f1565b92915050565b7f4e487b7100000000000000000000000000000000000000000000000000000000600052602260045260246000fd5b6000600282049050600182168061036257607f821691505b6020821081036103755761037461031b565b5b5091905056fea26469706673582212200cdb8474cea440340d737539ec93a8c208d7009d69305d75ed75622188f2dc3364736f6c63430008180033",
  "linkReferences": {},
  "deployedLinkReferences": {}
}